:020000040000fa
:080000000002040000000000f2
:020000040000fa
:04000800d002000022
:020000040000fa
:04000c00d00200001e
:020000040000fa
:04001000d00200001a
:020000040000fa
:04001400d002000016
:020000040000fa
:04001800d002000012
:020000040000fa
:04001c00d00200000e
:020000040000fa
:04002000d00200000a
:020000040000fa
:04002400d002000006
:020000040000fa
:04002800d002000002
:020000040000fa
:04002c00d0020000fe
:020000040000fa
:04003000d0020000fa
:020000040000fa
:04003400d0020000f6
:020000040000fa
:04003800d0020000f2
:020000040000fa
:04003c00d0020000ee
:020000040000fa
:04004000d0020000ea
:020000040000fa
:04004400d0020000e6
:020000040000fa
:04004800d0020000e2
:020000040000fa
:04004c00d0020000de
:020000040000fa
:04005000d0020000da
:020000040000fa
:04005400d0020000d6
:020000040000fa
:04005800d0020000d2
:020000040000fa
:04005c00d0020000ce
:020000040000fa
:04006000d0020000ca
:020000040000fa
:04006400d0020000c6
:020000040000fa
:04006800d0020000c2
:020000040000fa
:04006c00d0020000be
:020000040000fa
:04007000d0020000ba
:020000040000fa
:04007400d0020000b6
:020000040000fa
:04007800d0020000b2
:020000040000fa
:04007c00d0020000ae
:020000040000fa
:04008000d0020000aa
:020000040000fa
:04008400d0020000a6
:020000040000fa
:04008800d0020000a2
:020000040000fa
:04008c00d00200009e
:020000040000fa
:04009000d00200009a
:020000040000fa
:04009400d002000096
:020000040000fa
:04009800d002000092
:020000040000fa
:04009c00d00200008e
:020000040000fa
:0400a000d00200008a
:020000040000fa
:0400a400d002000086
:020000040000fa
:0400a800d002000082
:020000040000fa
:0400ac00d00200007e
:020000040000fa
:0400b000d00200007a
:020000040000fa
:0400b400d002000076
:020000040000fa
:0400b800d002000072
:020000040000fa
:0400bc00d00200006e
:020000040000fa
:0400c000d00200006a
:020000040000fa
:0400c400d002000066
:020000040000fa
:0400c800d002000062
:020000040000fa
:0400cc00d00200005e
:020000040000fa
:0400d000d00200005a
:020000040000fa
:0400d400d002000056
:020000040000fa
:0400d800d002000052
:020000040000fa
:0400dc00d00200004e
:020000040000fa
:0400e000d00200004a
:020000040000fa
:0400e400d002000046
:020000040000fa
:0400e800d002000042
:020000040000fa
:0400ec00d00200003e
:020000040000fa
:0400f000d00200003a
:020000040000fa
:0400f400d002000036
:020000040000fa
:0400f800d002000032
:020000040000fa
:0400fc00d00200002e
:020000040000fa
:04010000d002000029
:020000040000fa
:04010400d002000025
:020000040000fa
:04010800d002000021
:020000040000fa
:04010c00d00200001d
:020000040000fa
:04011000d002000019
:020000040000fa
:04011400d002000015
:020000040000fa
:04011800d002000011
:020000040000fa
:04011c00d00200000d
:020000040000fa
:04012000d002000009
:020000040000fa
:04012400d002000005
:020000040000fa
:04012800d002000001
:020000040000fa
:04012c00d0020000fd
:020000040000fa
:04013000d0020000f9
:020000040000fa
:04013400d0020000f5
:020000040000fa
:04020800d002000020
:020000040000fa
:04020c00d00200001c
:020000040000fa
:04021000d002000018
:020000040000fa
:04021400d002000014
:020000040000fa
:04021800d002000010
:020000040000fa
:04021c00d00200000c
:020000040000fa
:04022000d002000008
:020000040000fa
:04022400d002000004
:020000040000fa
:04022800d002000000
:020000040000fa
:04022c00d0020000fc
:020000040000fa
:04023000d0020000f8
:020000040000fa
:04023400d0020000f4
:020000040000fa
:04023800d0020000f0
:020000040000fa
:04023c00d0020000ec
:020000040000fa
:04024000d0020000e8
:020000040000fa
:04024400d0020000e4
:020000040000fa
:04024800d0020000e0
:020000040000fa
:04024c00d0020000dc
:020000040000fa
:04025000d0020000d8
:020000040000fa
:04025400d0020000d4
:020000040000fa
:04025800d0020000d0
:020000040000fa
:04025c00d0020000cc
:020000040000fa
:04026000d0020000c8
:020000040000fa
:04026400d0020000c4
:020000040000fa
:04026800d0020000c0
:020000040000fa
:04026c00d0020000bc
:020000040000fa
:04027000d0020000b8
:020000040000fa
:04027400d0020000b4
:020000040000fa
:04027800d0020000b0
:020000040000fa
:04027c00d0020000ac
:020000040000fa
:04028000d0020000a8
:020000040000fa
:04028400d0020000a4
:020000040000fa
:04028800d0020000a0
:020000040000fa
:04028c00d00200009c
:020000040000fa
:04029000d002000098
:020000040000fa
:04029400d002000094
:020000040000fa
:04029800d002000090
:020000040000fa
:04029c00d00200008c
:020000040000fa
:0402a000d002000088
:020000040000fa
:0402a400d002000084
:020000040000fa
:0402a800d002000080
:020000040000fa
:0402ac00d00200007c
:020000040000fa
:0402b000d002000078
:020000040000fa
:0402b400d002000074
:020000040000fa
:0402b800d002000070
:020000040000fa
:0402bc00d00200006c
:020000040000fa
:0402c000d002000068
:020000040000fa
:0402c400d002000064
:020000040000fa
:0402c800d002000060
:020000040000fa
:0402cc00d00200005c
:020000040000fa
:0402d000d002000058
:020000040000fa
:0402d400d002000054
:020000040000fa
:0402d800d002000050
:020000040000fa
:0402dc00d00200004c
:020000040000fa
:0402e000d002000048
:020000040000fa
:0402e400d002000044
:020000040000fa
:0402e800d002000040
:020000040000fa
:0402ec00d00200003c
:020000040000fa
:0402f000d002000038
:020000040000fa
:0402f400d002000034
:020000040000fa
:0402f800d002000030
:020000040000fa
:0402fc00d00200002c
:020000040000fa
:04030000d002000027
:020000040000fa
:04030400d002000023
:020000040000fa
:04030800d00200001f
:020000040000fa
:04030c00d00200001b
:020000040000fa
:04031000d002000017
:020000040000fa
:04031400d002000013
:020000040000fa
:04031800d00200000f
:020000040000fa
:04031c00d00200000b
:020000040000fa
:04032000d002000007
:020000040000fa
:04032400d002000003
:020000040000fa
:04032800d0020000ff
:020000040000fa
:04032c00d0020000fb
:020000040000fa
:04033000d0020000f7
:020000040000fa
:04033400d0020000f3
:020000040000fa
:10040000ef8020000e7f22000e0188000000000017
:10041000000020000000e000020032000001200087
:1004200020028800140007005f0007000000e000c1
:1004300003003a0040ad2000010020000200370018
:100440000000200001002000810f70000100320038
:1004500014000700000020000000e000020032004d
:1004600000000200000000006e0602000000000014
:100470000040da000000fe004440a90040022000d5
:100480000000e0000300320000002000a00188000e
:100490004440a800000006008a1f78008b1f7800e7
:1004a0000000060091018800800478000000eb0045
:1004b0001a003700e284440032a0b4009905ba0063
:1004c000e284440032a0b4009906ba00e2844400f9
:1004d00032a0b4000006eb00476fde00fd07b2005b
:1004e000636ce10003003a00ebff07000000eb0043
:1004f0000a003700606ce10004003a00005deb0088
:100500008b05e900fdff3e00040037006168e10053
:10051000010032000086eb000b00070019c7ba008b
:100520001905ba000e04e00003003a000a00e000da
:10053000e0ff3a0000000600fe07b2009e018800be
:100540008a047800f5ff3700395dba008b05e900b1
:100550000c003200295dba008b05e900080032006a
:100560000c00e00003003a00e284440032a0b40032
:10057000f5ff370019ddba008b05e900faff3a00f4
:100580008904e800e184440032a0b40000000600c1
:100590002e05040000000000ec050400000000002f
:1005a0000040da000000fe0000000500889fbe0049
:1005b0008a9fbe00800478000200e0005b003200e9
:1005c00001407800814c780082814400f1f99f005d
:1005d000e20f51005500360091449800a144980064
:1005e000e1f99f00d1f99f00e60f51004f0036005e
:1005f000b1449800c1f99f00e80f51004b0036004c
:100600000905ea00630565000a8444000a055100f3
:10061000c1ff2f00010565000080fb008000eb009a
:10062000121020001310200044000700008cbe00b0
:100630000a01440060b99f0071b99f00e80f55009e
:100640003a003600200498003104980040049800d5
:100650005104980020b99f0031b99f0040b99f0014
:1006600051b99f00f80f5500300036006004980023
:1006700071049800000c9800110c9800200c980050
:10068000310c9800400c9800510c980020b19f004c
:1006900031b19f0040b19f0051b19f0060b19f00f8
:1006a00071b19f0000b99f0011b99f0064016400ff
:1006b0007801410002044400020555006011b800b1
:1006c0000203be000002be000403be006022b800a8
:1006d0000000720081807200020173008381730048
:1006e00010003700009cbe000294be004004980039
:1006f000510498006204980073049800000c98005c
:10070000110c9800220c9800330c9800400c9800b3
:10071000510c9800620c9800730c98000a02b1000a
:100720000802b000ff0f5500eeff3e000900780000
:100730004f05be004f04be0000000600020ab900cb
:10074000001bb9000200b800810042008100430094
:04075000000006009f
:020000040000fa
:10075400202000002d200000202000002b2000007d
:100764002020000053540000415200005420000097
:100774002020000000200000202000002020000095
:1007840020200000202000002020000053540000fe
:080794004f50000000000000be
:020000040000fa
:10079c000400fa00008fbe00004080001140800071
:1007ac001e01be00800f5100818f590006003400dd
:1007bc0000408000114080003e011000ae81180006
:1007cc000200be00670307000028ef000228ef00bc
:1007dc000080fa00000006000400fa00008fbe0042
:1007ec001e00be005f030700004080001140800027
:1007fc003e014000ae8148000200be00004088006f
:10080c00114088000080fa00000006000400fa0085
:10081c00008fbe001e01be004218dd00ce10de00af
:10082c00810070004210dd00ebff07000080fa0031
:10083c00000006000400fa00008fbe001e00be007f
:10084c0002fa20000289b900020178006002b900a6
:10085c00840178000301410003fa20000300b80072
:10086c000101410082007800dbff07000080fa00e4
:10087c00000006000800fa001007980021079800f5
:10088c00320798000000eb00000f780015003700cd
:10089c002e0090000000e9001e0050009e00900009
:1008ac00808140003e019000d0cc2c000010b8009c
:1008bc004308de006a00b900000078000000510017
:1008cc00004078000043b00080497800be009000e2
:1008dc00d0cc2c000008b8004308de00300798008c
:1008ec001e0fe8002e0090009e007800808f5000b4
:1008fc00e7ff35000080fa00000006000200fa0055
:10090c00004f7800d6a2a900cbe2a900d682a8009d
:10091c001e80fb00e0168800200320000100200050
:10092c00baff0700d682a900200320000100200096
:10093c00b6ff07000080fa00000006000200fa0073
:10094c00004f7800d6a2a900cbe2a800d682a8005e
:10095c001e80fb00e0168800200320000100200010
:10096c00aaff0700d682a900200320000100200066
:10097c00a6ff07000080fa00000006000600fa003f
:10098c0010079800210798000000eb00000f78007a
:10099c002e009000e20f50000f0032002e0090004d
:1009ac000000e00002003a0000c8b300010037006c
:1009bc0000ccb300d1ff0700080037001e009000e8
:1009cc00104078009e0090008100e800110798000c
:1009dc00daff070001003700000000001e00900045
:1009ec00104078000004e0000800320010c0b30092
:1009fc009e007800ef8f5000010034000040eb00a7
:100a0c001e0fe8000004e000ecff3a000080fa0042
:100a1c00000006000000fa00400120000100200048
:100a2c0084ff070080c3b300b4ff0700c0c0b3004d
:100a3c00b2ff070010c0b300b0ff07002000200079
:100a4c00010020007bff07000080fa000000060078
:100a5c001600fa00001880004600de00000f780037
:100a6c009e007800200320000088b9000000780068
:100a7c00401fb000204088006600470002012000a3
:100a8c0001022000c6fe070061408000c003200068
:100a9c0000017800110009008200d80010079800ae
:100aac0061408000c00320000001780011000900a3
:100abc008200d8008000fd002007980066004700e7
:100acc000000e8001e0190002100200069ff0700d3
:100adc00a0c3b300204f980066004700650040009b
:100aec002e0190002100200062ff070020408000b2
:100afc0080007800660047006a0040000101780021
:100b0c00410020005bff070070c5b3004057980000
:100b1c00660047008000eb0098ff070011002000e2
:100b2c00a03a280095ff0700a116800000042000c1
:100b3c00008060000000e00009003a006040800086
:100b4c00ef0f500006003400604080006f00500032
:100b5c0060408800a00f20000100200035ff070036
:100b6c00a116800000082000008060000000e0005a
:100b7c000a003a006140800070252000808f5000f0
:100b8c0006003c00604080006f0040006040880020
:100b9c00a00f20000100200026ff07001116800086
:100bac0000082000008060000000e00005003a0012
:100bbc0010002000304088001000200001002000b0
:100bcc00f3fe07000080fa00000006001400fa0093
:100bdc00604080000000e00005003400a116800099
:100bec0000002200008060000000e00004003a00d9
:100bfc00e0012000604088000628ef00320037003a
:100c0c00604080000000e9006040880064004700fc
:100c1c00020120000102200061fe070061408000fb
:100c2c00c003200000017800110009008200d800e8
:100c3c00000f780061408000c003200000017800a4
:100c4c00110009008200d8008000fd0010079800f8
:100c5c00640047000000e8001e017800210020001d
:100c6c0004ff0700a0c3b300004f980064004700c6
:100c7c00650040001e01900021002000fdfe0700d1
:100c8c002040800080007800640047006a0040002b
:100c9c000101780041002000f6fe070070c5b3008a
:100cac0020579800640047008000eb0033ff0700da
:100cbc0011002000d03b280030ff070000902000de
:100ccc00d1032000b2fe07000080fa0000000600ed
:100cdc000400fa000008200000168800f0ff27002e
:100cec0030168800000c220090168800d822ef00e5
:100cfc00400e280000198800404020001019880080
:100d0c0000f02000201988002823ef0000022000aa
:100d1c00801988003fff0700e0522000000f780088
:100d2c00c05e20001007980030408000000040009a
:100d3c006e00780000000100fbff37000000fa0095
:100d4c00f03f200010308800303828000030880038
:100d5c001000200060308800008823001100200063
:100d6c00180107000088230011002000150107005e
:100d7c000426ef0030032000403088005003200090
:100d8c00010020000f0107000426ef0020032000c3
:100d9c0040308800500320000100200009010700aa
:100dac000426ef0080032000403088005003200010
:100dbc0001002000030107000426ef00c000200002
:100dcc00403088005003200001002000fd00070087
:100ddc000426ef0060002000403088005003200003
:100dec0001002000f70007006d00070010c0b300e1
:100dfc000080fa00000006000400fa00000f7800e2
:100e0c00110798000a0037001e0078001040780087
:100e1c000000fb000000e000110032001e00780012
:100e2c00104078001e0fe8001000070000000000c2
:100e3c001e00900000f0a7000000ea000000ea008d
:100e4c004f00de00004078009e0090008100e90019
:100e5c00110798000004e000ebff3a000100370096
:100e6c00000000000080fa00000006000200fa00fa
:100e7c00004f78001e00fb00ea0f50000e003200fd
:100e8c00ea0f500003003c00e80f50001500320040
:100e9c001b003700ec0f500017003200ed0f500014
:100eac0017003a000ac8bf00ea4f50003600320063
:100ebc004c000700350037000ac8bf00ed4f50004a
:100ecc00010032004700070008c8bf000004e00022
:100edc0002003a00b00007002c003700a300070006
:100eec002a0037005300070000c2b300dfff0700e1
:100efc0050000700250037002900070023003700a9
:100f0c0009c8bf00f04f500014003a000968ef0008
:100f1c0008c8bf000004e00009003a000426ef00f6
:100f2c00000c2000403088005003200001002000fd
:100f3c00a400070010c0b30008e8b7000700370092
:100f4c000426ef00000820004030880050032000e9
:100f5c00010020009b0007000868ef001000200033
:100f6c00203088001e00fb00403088005003200019
:100f7c00010020009300070009c8bf000040e800f2
:100f8c0009e8b70001003700000000001e4178009e
:100f9c00a1802000824878000080fa000000060042
:100fac000000fa000426ef001000200040308800fa
:100fbc00a088200001002000820007000426ef001a
:100fcc002000200040308800a08820000100200074
:100fdc007c0007000868ef000968ef000080fa0049
:100fec00000006000000fa0008c8bf000004e00082
:100ffc0007003a000426ef0000082000403088006b
:10100c0050032000010020006e000700060037008e
:10101c000426ef00000c2000403088005003200014
:10102c0001002000670007000968ef000080fa004b
:10103c00000006000200fa0009c8bf000004e0002e
:10104c001c003a0008c8bf000004e00009003a0088
:10105c000426ef00000c20004030880050032000d4
:10106c00010020005700070010c0b30008e8b700cb
:10107c00070037000426ef000008200040308800ed
:10108c0050032000010020004e0007000868ef000c
:10109c000040eb00004f7800020037001000070002
:1010ac001e4fe8001e407800ee4f5000fbff36004c
:1010bc000900370009c8bf000040e90009e8b70083
:1010cc000426ef000001200040308800500320006f
:1010dc00010020003b0007000080fa000000060021
:1010ec000000fa000426ef00400120004030880088
:1010fc0050032000010020003200070009c8bf0087
:10110c000040e80009e8b70009c8bf00f04f5000e4
:10111c0014003a000968ef0008c8bf000004e000a2
:10112c0009003a000426ef00000c20004030880033
:10113c0050032000010020002200070010c0b30063
:10114c0008e8b700070037000426ef00000820006d
:10115c0040308800500320000100200019000700d7
:10116c000868ef000080fa00000006000200fa0098
:10117c000040eb00004f780002003700adff070085
:10118c001e4fe8001e407800ef4f5000fbff36006a
:10119c000080fa00000006000200fa000040eb009c
:1011ac00004f780002003700cdff07001e4fe8000b
:1011bc001e407800ef4f5000fbff36000080fa0015
:1011cc00000006000400fa00008fbe000500370086
:1011dc00000000000081eb008081eb001e0f41003d
:1011ec005e9749001e00be00e00f5000e08f5800d3
:1011fc00f7ff3a000080fa00000006000200fa0037
:10120c00004f78001e4078000004e0000700320018
:10121c000426ef00f000200040308800500320002e
:10122c0001002000e7ff0700060037000426ef004e
:10123c00c000200040308800500320000100200036
:10124c00e0ff07000080fa00000006000400fa002e
:10125c00100798001e009000e40f500004003200ac
:10126c00e50f50000400320000c0eb001000370006
:10127c000000000001003700000000001e0090007c
:10128c000d000700d1cc2c000100b8004308de0093
:10129c00004f780040c6b3009e40780080cf5000cd
:1012ac000200360040c6b300004f78001e407800a4
:1012bc000080fa00000006000400fa0010079800f5
:1012cc001e009000e40f500004003200e50f5000a7
:1012dc00040032000080eb001f003700000000000b
:1012ec0001003700000000009e00900041198800aa
:1012fc002023a8000000eb00000f7800020037004c
:10130c00000000001e0fe800703e20009e007800d8
:10131c00808f5000faff36002023a9000000eb005c
:10132c00000f780002003700000000001e0fe800dc
:10133c00703e20009e007800808f5000faff36002f
:10134c000000000000198000610060000000e00057
:10135c00fcff3200001880000080fa00000006003c
:10136c000200fa00000f78001e007800e40f500015
:10137c0005003200e50f500006003a002ca3a9002e
:10138c0010c0b300040037002c83a90010c0b300b8
:10139c00010037000040eb000080fa00000006005e
:1013ac000200fa00000f78001e0078000000e00038
:1013bc001a003a0011198000f0ff21000080600033
:1013cc001019880000c0eb0024e3b700011980005d
:1013dc00f0f12f00008060000019880021198000b6
:1013ec00f00f2e000080600000c0a00020198800c3
:1013fc0001198000f0cf2f000080600000198800d8
:10140c001119800030fc2f0000806000101988003a
:10141c0021e3a80010c0b300010037000040eb002e
:10142c000080fa00000006000200fa00000f7800ad
:10143c001e007800e20f500013003200e20f500043
:10144c0003003e00e10f5000060032002900370077
:10145c00e30f500015003200e40f50001c00320066
:10146c0024003700a11680000004200000806000da
:10147c0000f0a7000000ea000000e9004f00de00c9
:10148c00004078001c003700a116800000082000e6
:10149c000080600000f0a7000000ea000000e900f6
:1014ac004f00de000040780013003700111680005a
:1014bc00000820000080600000f0a7000000ea0097
:1014cc000000e9004f00de00004078000a00370001
:1014dc00a1168000000022000080600000f0a70030
:1014ec000000ea000000e9004f00de000040780038
:1014fc00010037000040eb000080fa0000000600fd
:10150c000200fa00000f78001e007800e20f500075
:10151c000c003200e20f500003003e00e10f5000bf
:10152c00060032000d003700e30f500007003200b8
:10153c00e40f50000700320008003700d2c2a800a8
:10154c0006003700d2e2a80004003700c0e2a80071
:10155c0002003700d3a2a800000000000080fa00af
:04156c000000060075
:020000040000fa
:10157000f03fb1000180b10006003500ee03090024
:1015800000000000403fb1000180b100fbff3d00c2
:101590001000b000203fb0000200350000800900bc
:0815a00000000000000006003d
:020000040000fa
:1015a8000008000008000000000000000c0800000f
:1015b80002000000020000001e00000008080000f1
:0c15c80004000000000000000000000013
:020000040000fa
:020000040002f8
:04aff800bf7800001e
:020000040000fa
:020000040002f8
:04affc007f3f000093
:00000001FF
